:1000000012C021C020C01FC01EC01DC01CC01BC00C
:100010001AC019C018C017C016C015C014C013C02C
:1000200012C012C010C011241FBECFE5D4E0DEBF45
:10003000CDBF10E0A0E6B0E001C01D92A236B1072E
:10004000E1F72ED031C0DCCF1F920F920FB60F9286
:1000500011248F93F89481B1803619F0883A41F4D5
:1000600008C083B18093600081E08093610001C08B
:1000700088BB86B7806886BF78948F910F900FBE3B
:100080000F901F9018958FEF87BB18BA78948FE365
:1000900084BB85BB10B882E082B985E486BF089531
:0C00A000F2DF80E090E00895F894FFCFBC
:00000001FF
