:1000000012C0BFC0D8C01FC01EC01DC01CC01BC0B6
:100010001AC019C018C017C016C015C014C013C02C
:1000200012C012C010C011241FBECFE5D4E0DEBF45
:10003000CDBF10E0A0E6B0E001C01D92AB36B10725
:10004000E1F70CD13CC1DCCF1F920F920FB60F929B
:1000500011248F939F93EF93FF9381B1887F803A10
:1000600009F483C0813A30F4803669F0803809F0B1
:100070007BC055C0883BA9F0803C09F44BC0883A4E
:1000800009F072C003C081E090E054C081E090E0CC
:100090009093610080936000E0916800F0916900A6
:1000A00025C0809160009091610082309105A1F09F
:1000B0008330910518F4019741F503C0039729F5A2
:1000C00017C082E090E09093610080936000E0911F
:1000D0006800F091690016C083E090E090936100A1
:1000E00080936000E0916400F091650080810BC016
:1000F00084E090E09093610080936000E091640060
:10010000F0916500818183B930C010926100109236
:10011000600026C0109261001092600026C080919D
:10012000620090916300019751F483B1809366005F
:1001300082E090E0909363008093620016C080910B
:10014000620090916300029759F483B18093670035
:10015000109263001092620081E080936A0005C0F3
:1001600086B7806186BF01C088BB86B7806886BFBE
:10017000FF91EF919F918F910F900FBE0F901F9065
:1001800018951F920F920FB60F9211248F93EF9331
:10019000FF93E0916800F0916900829B03C081E0C9
:1001A000808301C01082FF91EF918F910F900FBE5D
:1001B0000F901F9018951F920F920FB60F92112457
:1001C0008F93EF93FF93E0916400F0916500839B20
:1001D00003C081E0808301C01082FF91EF918F9175
:1001E0000F900FBE0F901F901895109266001092FE
:1001F0006A0087B38FEF87BB88B318BA81B3836F68
:1002000081BB82B312BA81E58FBD21E02EBD81E6AC
:1002100085BD80E890E09BBD8ABD80E883BD80B14C
:1002200010B882E082B985EC86BF80B3E0916800A7
:10023000F091690082FF02C0208301C01082E0912A
:100240006400F091650083FF03C081E0808301C0FA
:10025000108285E085BF80EC8BBF0895DF93CF933C
:1002600000D000D0CDB7DEB7CE01019690936900E3
:1002700080936800CE01039690936500809364009C
:1002800080E88A838C83B1DF789480916A00813022
:10029000E1F7F89410926A0080916600813041F491
:1002A000809167008A838A8190E09BBD8ABD05C0EA
:1002B000809167008C838C8183BD7894E6CFF8941D
:0202C000FFCF6E
:00000001FF
