:1000000012C021C020C01FC01EC01DC01CC01BC00C
:100010001AC019C018C017C016C015C014C013C02C
:1000200012C012C010C011241FBECFE5D4E0DEBF45
:10003000CDBF10E0A0E6B0E001C01D92A236B1072E
:10004000E1F72AD051C0DCCF1F920F920FB60F926A
:1000500011248F939F93F89488B392E0892788BBEB
:1000600091B1903619F0983A41F40BC083B1809366
:10007000600081E08093610004C018BA88B3892BC6
:1000800088BB86B78F7786BF78949F918F910F90AA
:100090000FBE0F901F90189587B38FEF87BB88B363
:1000A00018BA80B110B882E082B985EC86BF789426
:1000B000209160009091610031E082B188BB913065
:1000C000E1F790E02C36C9F788B3832788BBF5CFDA
:1000D00087B38FEF87BB88B318BA80B110B882E0BE
:0C00E00082B985EC86BF0895F894FFCF2C
:00000001FF
