:1000000012C0A2C0B9C01FC01EC01DC01CC01BC0F2
:100010001AC019C018C017C016C015C014C013C02C
:1000200012C012C010C011241FBECFE5D4E0DEBF45
:10003000CDBF10E0A0E6B0E001C01D92A836B10728
:10004000E1F7E1D002C1DCCF1F920F920FB60F9201
:1000500011248F939F93EF93FF9381B1887F803A10
:1000600009F466C0813A38F4803609F461C08038FA
:1000700009F05DC055C0883B99F0803C09F44BC045
:10008000883A09F054C081E090E090936100809339
:100090006000E0916400F0916500808183B948C000
:1000A000809160009091610082309105A1F08330D1
:1000B000910518F4019741F503C0039729F518C07D
:1000C00082E090E09093610080936000E091640092
:1000D000F091650017C083E090E0909361008093F9
:1000E0006000E0916200F0916300808183B913C0E9
:1000F00084E090E09093610080936000E091620062
:10010000F09163008181F2CF109261001092600043
:1001100086B7806186BF109261001092600008C0AF
:1001200083B18093660081E08093670001C088BB43
:1001300086B7806886BFFF91EF919F918F910F9056
:100140000FBE0F901F9018951F920F920FB60F922F
:1001500011248F93EF93FF93E0916400F091650079
:100160008081809581708083FF91EF918F910F90B6
:100170000FBE0F901F9018951F920F920FB60F92FF
:1001800011248F93EF93FF93E0916200F09163004D
:100190008081809581708083FF91EF918F910F9086
:1001A0000FBE0F901F901895109266001092670076
:1001B00087B38FEF87BB88B318BA81B3836F81BBD6
:1001C00082B312BA81E685BD80E883BD80B110B8E4
:1001D00082E082B985EC86BF80B3982FE0916400FD
:1001E000F091650092FF03C081E0808301C010821E
:1001F000E0916200F091630093FF03C081E080838F
:10020000089510820895DF93CF9300D000D0CDB72A
:10021000DEB7CE0101969093650080936400CE0115
:100220000396909363008093620080E88A83BCDF2A
:100230007894809167008130E1F7F89480916600AE
:0E02400083BD109267007894F4CFF894FFCF3E
:00000001FF
