:1000000012C021C020C01FC01EC01DC01CC01BC00C
:100010001AC019C018C017C016C015C014C013C02C
:1000200012C012C010C011241FBECFE5D4E0DEBF45
:10003000CDBF10E0A0E6B0E001C01D92A236B1072E
:10004000E1F739D050C0DCCF1F920F920FB60F925C
:1000500011248F93F89481B1887F803851F08138D2
:1000600018F4803669F40DC0803A59F0883A41F4AA
:1000700008C083B18093600081E08093610001C07B
:1000800088BB86B7806886BF78948F910F900FBE2B
:100090000F901F901895109260001092610087B326
:1000A0008FEF87BB88B318BA80B110B882E082B9ED
:1000B00085EC86BF0895EFDF789490E08091610031
:1000C0008130E1F780916000853CC1F7992319F4F4
:1000D000C09A91E003C088B318BA90E0F8941092E7
:0A00E00061007894EBCFF894FFCF95
:00000001FF
